{
  "contractName": "VotingPlatform",
  "abi": [
    {
      "inputs": [],
      "stateMutability": "nonpayable",
      "type": "constructor"
    },
    {
      "anonymous": false,
      "inputs": [
        {
          "indexed": false,
          "internalType": "string",
          "name": "dummy",
          "type": "string"
        }
      ],
      "name": "DummyEvent",
      "type": "event"
    },
    {
      "anonymous": false,
      "inputs": [
        {
          "indexed": false,
          "internalType": "uint32",
          "name": "maxProposalIndex",
          "type": "uint32"
        }
      ],
      "name": "RetrieveMaxProposalIndex",
      "type": "event"
    },
    {
      "anonymous": false,
      "inputs": [
        {
          "indexed": false,
          "internalType": "string",
          "name": "title",
          "type": "string"
        },
        {
          "indexed": false,
          "internalType": "string",
          "name": "description",
          "type": "string"
        },
        {
          "indexed": false,
          "internalType": "string[]",
          "name": "candidates",
          "type": "string[]"
        },
        {
          "indexed": false,
          "internalType": "uint32",
          "name": "proposalId",
          "type": "uint32"
        }
      ],
      "name": "RetrieveProposal",
      "type": "event"
    },
    {
      "anonymous": false,
      "inputs": [
        {
          "indexed": false,
          "internalType": "string",
          "name": "candidate",
          "type": "string"
        }
      ],
      "name": "RetrieveVote",
      "type": "event"
    },
    {
      "anonymous": false,
      "inputs": [
        {
          "indexed": false,
          "internalType": "string[]",
          "name": "votes",
          "type": "string[]"
        }
      ],
      "name": "RetrieveVotes",
      "type": "event"
    },
    {
      "inputs": [],
      "name": "dummy",
      "outputs": [],
      "stateMutability": "nonpayable",
      "type": "function"
    },
    {
      "inputs": [
        {
          "internalType": "string",
          "name": "title",
          "type": "string"
        },
        {
          "internalType": "string",
          "name": "description",
          "type": "string"
        },
        {
          "internalType": "string[]",
          "name": "candidates",
          "type": "string[]"
        }
      ],
      "name": "createProposal",
      "outputs": [],
      "stateMutability": "nonpayable",
      "type": "function"
    },
    {
      "inputs": [
        {
          "internalType": "uint32",
          "name": "id",
          "type": "uint32"
        }
      ],
      "name": "getProposal",
      "outputs": [],
      "stateMutability": "nonpayable",
      "type": "function"
    },
    {
      "inputs": [],
      "name": "getMaxProposalIndex",
      "outputs": [],
      "stateMutability": "nonpayable",
      "type": "function"
    },
    {
      "inputs": [
        {
          "internalType": "uint32",
          "name": "proposalId",
          "type": "uint32"
        },
        {
          "internalType": "uint32",
          "name": "voteUid",
          "type": "uint32"
        },
        {
          "internalType": "string",
          "name": "candidate",
          "type": "string"
        },
        {
          "internalType": "string",
          "name": "userId",
          "type": "string"
        }
      ],
      "name": "vote",
      "outputs": [],
      "stateMutability": "nonpayable",
      "type": "function"
    },
    {
      "inputs": [
        {
          "internalType": "uint32",
          "name": "proposalId",
          "type": "uint32"
        },
        {
          "internalType": "uint32",
          "name": "voteId",
          "type": "uint32"
        }
      ],
      "name": "getVoteById",
      "outputs": [],
      "stateMutability": "nonpayable",
      "type": "function"
    },
    {
      "inputs": [
        {
          "internalType": "uint32",
          "name": "proposalId",
          "type": "uint32"
        }
      ],
      "name": "getProposalVotes",
      "outputs": [],
      "stateMutability": "nonpayable",
      "type": "function"
    }
  ],
  "bytecode": "0x608060405234801561001057600080fd5b50336000806101000a81548173ffffffffffffffffffffffffffffffffffffffff021916908373ffffffffffffffffffffffffffffffffffffffff160217905550611c35806100606000396000f3fe608060405234801561001057600080fd5b506004361061007d5760003560e01c80634724c40c1161005b5780634724c40c146100c457806367d9bf7b146100e057806374d1613f146100ea578063deb61c15146101065761007d565b8063114f00ab146100825780632e8e3e0d1461009e57806332e43a11146100ba575b600080fd5b61009c60048036038101906100979190610f6c565b610122565b005b6100b860048036038101906100b39190610f99565b6102b5565b005b6100c261041e565b005b6100de60048036038101906100d99190611260565b610455565b005b6100e86105ec565b005b61010460048036038101906100ff9190611311565b6106f8565b005b610120600480360381019061011b9190610f6c565b610964565b005b80600060149054906101000a900463ffffffff1663ffffffff168163ffffffff1610610183576040517f08c379a000000000000000000000000000000000000000000000000000000000815260040161017a9061143b565b60405180910390fd5b60008054906101000a900473ffffffffffffffffffffffffffffffffffffffff1673ffffffffffffffffffffffffffffffffffffffff163373ffffffffffffffffffffffffffffffffffffffff1614610211576040517f08c379a0000000000000000000000000000000000000000000000000000000008152600401610208906114cd565b60405180910390fd5b7fe85c3e5ac92434aa676853775b822d3cb7f19cb60bdc6a59efca941a5b43bd67600160008463ffffffff1663ffffffff168152602001908152602001600020600001600160008563ffffffff1663ffffffff168152602001908152602001600020600101600160008663ffffffff1663ffffffff168152602001908152602001600020600301856040516102a99493929190611748565b60405180910390a15050565b60008054906101000a900473ffffffffffffffffffffffffffffffffffffffff1673ffffffffffffffffffffffffffffffffffffffff163373ffffffffffffffffffffffffffffffffffffffff1614610343576040517f08c379a000000000000000000000000000000000000000000000000000000000815260040161033a906114cd565b60405180910390fd5b81600060149054906101000a900463ffffffff1663ffffffff168163ffffffff16106103a4576040517f08c379a000000000000000000000000000000000000000000000000000000000815260040161039b9061143b565b60405180910390fd5b7f662af86df055962460c82d0c5650c8e00ae6509777d966cb37cce98f28b22a37600160008563ffffffff1663ffffffff16815260200190815260200160002060050160008463ffffffff1663ffffffff16815260200190815260200160002060405161041191906117a2565b60405180910390a1505050565b7f5d1ca04f16bd7543edfc3334447b8976b0504f3a3e449dcd9992eb93781a80f360405161044b90611810565b60405180910390a1565b60008054906101000a900473ffffffffffffffffffffffffffffffffffffffff1673ffffffffffffffffffffffffffffffffffffffff163373ffffffffffffffffffffffffffffffffffffffff16146104e3576040517f08c379a00000000000000000000000000000000000000000000000000000000081526004016104da906114cd565b60405180910390fd5b60006001600080601481819054906101000a900463ffffffff168092919061050a9061185f565b91906101000a81548163ffffffff021916908363ffffffff16021790555063ffffffff1663ffffffff16815260200190815260200160002090508585826000019190610557929190610d2f565b50838382600101919061056b929190610d2f565b5081816003019080519060200190610584929190610db5565b507fe85c3e5ac92434aa676853775b822d3cb7f19cb60bdc6a59efca941a5b43bd6786868686866001600060149054906101000a900463ffffffff166105ca919061188b565b6040516105dc96959493929190611a14565b60405180910390a1505050505050565b60008054906101000a900473ffffffffffffffffffffffffffffffffffffffff1673ffffffffffffffffffffffffffffffffffffffff163373ffffffffffffffffffffffffffffffffffffffff161461067a576040517f08c379a0000000000000000000000000000000000000000000000000000000008152600401610671906114cd565b60405180910390fd5b7ffcd099463c36c23850d4be10d70d2a6663a216f57d8be211ce31786d4a64b40c60008060149054906101000a900463ffffffff1663ffffffff16146106de576001600060149054906101000a900463ffffffff166106d9919061188b565b6106e1565b60005b6040516106ee9190611a72565b60405180910390a1565b60008054906101000a900473ffffffffffffffffffffffffffffffffffffffff1673ffffffffffffffffffffffffffffffffffffffff163373ffffffffffffffffffffffffffffffffffffffff1614610786576040517f08c379a000000000000000000000000000000000000000000000000000000000815260040161077d906114cd565b60405180910390fd5b85600060149054906101000a900463ffffffff1663ffffffff168163ffffffff16106107e7576040517f08c379a00000000000000000000000000000000000000000000000000000000081526004016107de9061143b565b60405180910390fd5b86838387876107f7858585610aaf565b15610837576040517f08c379a000000000000000000000000000000000000000000000000000000000815260040161082e90611ad9565b60405180910390fd5b610842858383610bef565b610881576040517f08c379a000000000000000000000000000000000000000000000000000000000815260040161087890611b45565b60405180910390fd5b6000600160008e63ffffffff1663ffffffff1681526020019081526020016000209050806002018989909180600181540180825580915050600190039060005260206000200160009091929091929091929091925091906108e3929190610d2f565b50806004018b8b90918060018154018082558091505060019003906000526020600020016000909192909192909192909192509190610923929190610d2f565b508a8a8260050160008f63ffffffff1663ffffffff1681526020019081526020016000209190610954929190610d2f565b5050505050505050505050505050565b60008054906101000a900473ffffffffffffffffffffffffffffffffffffffff1673ffffffffffffffffffffffffffffffffffffffff163373ffffffffffffffffffffffffffffffffffffffff16146109f2576040517f08c379a00000000000000000000000000000000000000000000000000000000081526004016109e9906114cd565b60405180910390fd5b80600060149054906101000a900463ffffffff1663ffffffff168163ffffffff1610610a53576040517f08c379a0000000000000000000000000000000000000000000000000000000008152600401610a4a9061143b565b60405180910390fd5b7fef7f23287f339a581e6f5e733ac7719e61b9c95b120e82606dfe38dc85fdd8e0600160008463ffffffff1663ffffffff168152602001908152602001600020600401604051610aa39190611b65565b60405180910390a15050565b600080600090506000600160008763ffffffff1663ffffffff168152602001908152602001600020905060005b81600201805490508163ffffffff161015610be2576000826002018263ffffffff1681548110610b0f57610b0e611b87565b5b906000526020600020018054610b249061151c565b80601f0160208091040260200160405190810160405280929190818152602001828054610b509061151c565b8015610b9d5780601f10610b7257610100808354040283529160200191610b9d565b820191906000526020600020905b815481529060010190602001808311610b8057829003601f168201915b505050505090508686604051610bb4929190611be6565b6040518091039020818051906020012003610bce57600193505b508080610bda9061185f565b915050610adc565b5081925050509392505050565b600080600090506000600160008763ffffffff1663ffffffff168152602001908152602001600020905060005b81600301805490508163ffffffff161015610d22576000826003018263ffffffff1681548110610c4f57610c4e611b87565b5b906000526020600020018054610c649061151c565b80601f0160208091040260200160405190810160405280929190818152602001828054610c909061151c565b8015610cdd5780601f10610cb257610100808354040283529160200191610cdd565b820191906000526020600020905b815481529060010190602001808311610cc057829003601f168201915b505050505090508686604051610cf4929190611be6565b6040518091039020818051906020012003610d0e57600193505b508080610d1a9061185f565b915050610c1c565b5081925050509392505050565b828054610d3b9061151c565b90600052602060002090601f016020900481019282610d5d5760008555610da4565b82601f10610d7657803560ff1916838001178555610da4565b82800160010185558215610da4579182015b82811115610da3578235825591602001919060010190610d88565b5b509050610db19190610e15565b5090565b828054828255906000526020600020908101928215610e04579160200282015b82811115610e03578251829080519060200190610df3929190610e32565b5091602001919060010190610dd5565b5b509050610e119190610eb8565b5090565b5b80821115610e2e576000816000905550600101610e16565b5090565b828054610e3e9061151c565b90600052602060002090601f016020900481019282610e605760008555610ea7565b82601f10610e7957805160ff1916838001178555610ea7565b82800160010185558215610ea7579182015b82811115610ea6578251825591602001919060010190610e8b565b5b509050610eb49190610e15565b5090565b5b80821115610ed85760008181610ecf9190610edc565b50600101610eb9565b5090565b508054610ee89061151c565b6000825580601f10610efa5750610f19565b601f016020900490600052602060002090810190610f189190610e15565b5b50565b6000604051905090565b600080fd5b600080fd5b600063ffffffff82169050919050565b610f4981610f30565b8114610f5457600080fd5b50565b600081359050610f6681610f40565b92915050565b600060208284031215610f8257610f81610f26565b5b6000610f9084828501610f57565b91505092915050565b60008060408385031215610fb057610faf610f26565b5b6000610fbe85828601610f57565b9250506020610fcf85828601610f57565b9150509250929050565b600080fd5b600080fd5b600080fd5b60008083601f840112610ffe57610ffd610fd9565b5b8235905067ffffffffffffffff81111561101b5761101a610fde565b5b60208301915083600182028301111561103757611036610fe3565b5b9250929050565b6000601f19601f8301169050919050565b7f4e487b7100000000000000000000000000000000000000000000000000000000600052604160045260246000fd5b6110878261103e565b810181811067ffffffffffffffff821117156110a6576110a561104f565b5b80604052505050565b60006110b9610f1c565b90506110c5828261107e565b919050565b600067ffffffffffffffff8211156110e5576110e461104f565b5b602082029050602081019050919050565b600080fd5b600067ffffffffffffffff8211156111165761111561104f565b5b61111f8261103e565b9050602081019050919050565b82818337600083830152505050565b600061114e611149846110fb565b6110af565b90508281526020810184848401111561116a576111696110f6565b5b61117584828561112c565b509392505050565b600082601f83011261119257611191610fd9565b5b81356111a284826020860161113b565b91505092915050565b60006111be6111b9846110ca565b6110af565b905080838252602082019050602084028301858111156111e1576111e0610fe3565b5b835b8181101561122857803567ffffffffffffffff81111561120657611205610fd9565b5b808601611213898261117d565b855260208501945050506020810190506111e3565b5050509392505050565b600082601f83011261124757611246610fd9565b5b81356112578482602086016111ab565b91505092915050565b60008060008060006060868803121561127c5761127b610f26565b5b600086013567ffffffffffffffff81111561129a57611299610f2b565b5b6112a688828901610fe8565b9550955050602086013567ffffffffffffffff8111156112c9576112c8610f2b565b5b6112d588828901610fe8565b9350935050604086013567ffffffffffffffff8111156112f8576112f7610f2b565b5b61130488828901611232565b9150509295509295909350565b6000806000806000806080878903121561132e5761132d610f26565b5b600061133c89828a01610f57565b965050602061134d89828a01610f57565b955050604087013567ffffffffffffffff81111561136e5761136d610f2b565b5b61137a89828a01610fe8565b9450945050606087013567ffffffffffffffff81111561139d5761139c610f2b565b5b6113a989828a01610fe8565b92509250509295509295509295565b600082825260208201905092915050565b7f5265717565737465642070726f706f73616c20646f6573206e6f74206578697360008201527f7400000000000000000000000000000000000000000000000000000000000000602082015250565b60006114256021836113b8565b9150611430826113c9565b604082019050919050565b6000602082019050818103600083015261145481611418565b9050919050565b7f46756e6374696f6e206f6e6c792063616c6c61626c6520627920636f6e74726160008201527f6374206f776e6572000000000000000000000000000000000000000000000000602082015250565b60006114b76028836113b8565b91506114c28261145b565b604082019050919050565b600060208201905081810360008301526114e6816114aa565b9050919050565b7f4e487b7100000000000000000000000000000000000000000000000000000000600052602260045260246000fd5b6000600282049050600182168061153457607f821691505b602082108103611547576115466114ed565b5b50919050565b60008190508160005260206000209050919050565b6000815461156f8161151c565b61157981866113b8565b9450600182166000811461159457600181146115a6576115d9565b60ff19831686526020860193506115d9565b6115af8561154d565b60005b838110156115d1578154818901526001820191506020810190506115b2565b808801955050505b50505092915050565b600081549050919050565b600082825260208201905092915050565b60008190508160005260206000209050919050565b600082825260208201905092915050565b600081546116318161151c565b61163b8186611613565b9450600182166000811461165657600181146116685761169b565b60ff198316865260208601935061169b565b6116718561154d565b60005b8381101561169357815481890152600182019150602081019050611674565b808801955050505b50505092915050565b60006116b08383611624565b905092915050565b6000600182019050919050565b60006116d0826115e2565b6116da81856115ed565b9350836020820285016116ec856115fe565b8060005b858110156117275784840389528161170885826116a4565b9450611713836116b8565b925060208a019950506001810190506116f0565b50829750879550505050505092915050565b61174281610f30565b82525050565b600060808201905081810360008301526117628187611562565b905081810360208301526117768186611562565b9050818103604083015261178a81856116c5565b90506117996060830184611739565b95945050505050565b600060208201905081810360008301526117bc8184611562565b905092915050565b7f53616d706c652074657874000000000000000000000000000000000000000000600082015250565b60006117fa600b836113b8565b9150611805826117c4565b602082019050919050565b60006020820190508181036000830152611829816117ed565b9050919050565b7f4e487b7100000000000000000000000000000000000000000000000000000000600052601160045260246000fd5b600061186a82610f30565b915063ffffffff82036118805761187f611830565b5b600182019050919050565b600061189682610f30565b91506118a183610f30565b9250828210156118b4576118b3611830565b5b828203905092915050565b60006118cb83856113b8565b93506118d883858461112c565b6118e18361103e565b840190509392505050565b600081519050919050565b6000819050602082019050919050565b600081519050919050565b60005b83811015611930578082015181840152602081019050611915565b8381111561193f576000848401525b50505050565b600061195082611907565b61195a8185611613565b935061196a818560208601611912565b6119738161103e565b840191505092915050565b600061198a8383611945565b905092915050565b6000602082019050919050565b60006119aa826118ec565b6119b481856115ed565b9350836020820285016119c6856118f7565b8060005b85811015611a0257848403895281516119e3858261197e565b94506119ee83611992565b925060208a019950506001810190506119ca565b50829750879550505050505092915050565b60006080820190508181036000830152611a2f81888a6118bf565b90508181036020830152611a448186886118bf565b90508181036040830152611a58818561199f565b9050611a676060830184611739565b979650505050505050565b6000602082019050611a876000830184611739565b92915050565b7f5573657220616c726561647920766f7465640000000000000000000000000000600082015250565b6000611ac36012836113b8565b9150611ace82611a8d565b602082019050919050565b60006020820190508181036000830152611af281611ab6565b9050919050565b7f43616e64696461746520646f6573206e6f742065786973740000000000000000600082015250565b6000611b2f6018836113b8565b9150611b3a82611af9565b602082019050919050565b60006020820190508181036000830152611b5e81611b22565b9050919050565b60006020820190508181036000830152611b7f81846116c5565b905092915050565b7f4e487b7100000000000000000000000000000000000000000000000000000000600052603260045260246000fd5b600081905092915050565b6000611bcd8385611bb6565b9350611bda83858461112c565b82840190509392505050565b6000611bf3828486611bc1565b9150819050939250505056fea2646970667358221220e63e67aac9abc487039a8de83997093ca1bd9fb4fed397f321fac74710b3e35a64736f6c634300080e0033",
  "immutableReferences": {},
  "source": "// SPDX-License-Identifier: UNLICENCED\npragma solidity >= 0.4.22 < 0.9.0;\n\ncontract VotingPlatform {\n\n    struct Proposal {\n        string title;\n        string description;\n        string[] participants;\n        string[] candidates;\n        string[] votes;\n        mapping (uint32 => string) votesById;\n        // TODO - Add date\n    }\n\n    address owner;\n    uint32 proposalIndex;\n    mapping (uint32 => Proposal) proposals;\n\n    // Events\n    event DummyEvent(string dummy);\n    event RetrieveProposal(string title, string description, string[] candidates, uint32 proposalId);\n    event RetrieveMaxProposalIndex(uint32 maxProposalIndex);\n    event RetrieveVote(string candidate);\n    event RetrieveVotes(string[] votes);\n\n    constructor() {\n        // Set the owner of the contract to the address that deployed it\n        owner = msg.sender;\n    }\n\n    // Function modifiers\n    modifier onlyOwner() {\n        require(msg.sender == owner, \"Function only callable by contract owner\");\n        _;\n    }\n\n    modifier onlyOnExsistantProposals(uint32 id) {\n        require(id < proposalIndex, \"Requested proposal does not exist\");\n        _;\n    }\n\n    modifier voteIsValid(uint32 proposalId, string calldata userId, string calldata candidate) {\n        require(!didUserAlreadyVote(proposalId, userId), \"User already voted\");\n        require(candidateExistsInProposal(proposalId, candidate), \"Candidate does not exist\");\n        _;\n    }\n\n    function didUserAlreadyVote(uint32 proposalId, string calldata userId) private view returns(bool) {\n        bool voted = false;\n        Proposal storage proposal = proposals[proposalId];\n        for (uint32 i = 0; i < proposal.participants.length; i++) {\n            string memory currentParticipant = proposal.participants[i];\n            if (keccak256(bytes(currentParticipant)) == keccak256(bytes(userId))) {\n                voted = true;\n            }\n        }\n\n        return voted;\n    }\n\n    function candidateExistsInProposal(uint32 proposalId, string calldata candidate) private view returns(bool) {\n        bool exists = false;\n        Proposal storage proposal = proposals[proposalId];\n        for (uint32 i = 0; i < proposal.candidates.length; i++) {\n            string memory currentCandidate = proposal.candidates[i];\n            if (keccak256(bytes(currentCandidate)) == keccak256(bytes(candidate))) {\n                exists = true;\n            }\n        }\n\n        return exists;\n    }\n    \n    // Dummy function for testing purposes\n    function dummy() public {\n        emit DummyEvent(\"Sample text\");\n    }\n\n\n    // All functions are only callable by the owner of the contract to prevent outside users interaction\n    function createProposal(string calldata title, string calldata description, string[] memory candidates) public onlyOwner {\n        Proposal storage newProposal = proposals[proposalIndex++];\n        newProposal.title = title;\n        newProposal.description = description;\n        newProposal.candidates = candidates;\n        emit RetrieveProposal(title, description, candidates, proposalIndex - 1);\n    }\n\n    // Retrieve proposal by id\n    function getProposal(uint32 id) public onlyOnExsistantProposals(id) onlyOwner {\n        emit RetrieveProposal(proposals[id].title, proposals[id].description, proposals[id].candidates, id);\n    }\n\n    // Get max proposal index, to get all available proposals ID's\n    function getMaxProposalIndex() public onlyOwner {\n        emit RetrieveMaxProposalIndex(proposalIndex == 0 ? 0 : proposalIndex - 1);\n    }\n\n    // Voting function. TODO - Check for duplicate votes UID? Refactor vote to (Candidate, UID) to avoid mapping?\n    function vote(uint32 proposalId, uint32 voteUid, string calldata candidate, string calldata userId) public \n        onlyOwner onlyOnExsistantProposals(proposalId) voteIsValid(proposalId, userId, candidate)\n    {\n        Proposal storage proposal = proposals[proposalId];\n        proposal.participants.push(userId);\n        proposal.votes.push(candidate);\n        proposal.votesById[voteUid] = candidate;\n    }\n\n    // Retrieve vote by uid\n    function getVoteById(uint32 proposalId, uint32 voteId) public onlyOwner onlyOnExsistantProposals(proposalId) {\n        emit RetrieveVote(proposals[proposalId].votesById[voteId]);\n    }\n\n    // Retrieve proposal votes\n    function getProposalVotes(uint32 proposalId) public onlyOwner onlyOnExsistantProposals(proposalId) {\n        emit RetrieveVotes(proposals[proposalId].votes);\n    }\n}\n",
  "sourcePath": "/Users/franco.cerquetti/Documents/facu/tp-voto-electronico/contracts/src/VotingPlatform.sol",
  "compiler": {
    "name": "solc",
    "version": "0.8.14+commit.80d49f37.Emscripten.clang"
  },
  "schemaVersion": "3.4.7",
  "updatedAt": "2022-08-25T02:02:11.764Z",
  "networkType": "ethereum",
  "devdoc": {
    "kind": "dev",
    "methods": {},
    "version": 1
  },
  "userdoc": {
    "kind": "user",
    "methods": {},
    "version": 1
  }
}