{
  "contractName": "VotingPlatform",
  "abi": [
    {
      "inputs": [],
      "stateMutability": "nonpayable",
      "type": "constructor"
    },
    {
      "anonymous": false,
      "inputs": [
        {
          "indexed": false,
          "internalType": "string",
          "name": "title",
          "type": "string"
        },
        {
          "indexed": false,
          "internalType": "string",
          "name": "description",
          "type": "string"
        },
        {
          "indexed": false,
          "internalType": "uint32",
          "name": "roomId",
          "type": "uint32"
        }
      ],
      "name": "RetrieveRoom",
      "type": "event"
    },
    {
      "anonymous": false,
      "inputs": [
        {
          "indexed": false,
          "internalType": "uint256",
          "name": "vote",
          "type": "uint256"
        }
      ],
      "name": "RetrieveVote",
      "type": "event"
    },
    {
      "anonymous": false,
      "inputs": [
        {
          "indexed": false,
          "internalType": "uint256[]",
          "name": "votes",
          "type": "uint256[]"
        }
      ],
      "name": "RetrieveVotes",
      "type": "event"
    },
    {
      "anonymous": false,
      "inputs": [
        {
          "indexed": false,
          "internalType": "uint256[]",
          "name": "lists",
          "type": "uint256[]"
        }
      ],
      "name": "RoomLists",
      "type": "event"
    },
    {
      "inputs": [
        {
          "internalType": "string",
          "name": "title",
          "type": "string"
        },
        {
          "internalType": "string",
          "name": "description",
          "type": "string"
        }
      ],
      "name": "createRoom",
      "outputs": [],
      "stateMutability": "nonpayable",
      "type": "function"
    },
    {
      "inputs": [
        {
          "internalType": "uint32",
          "name": "roomId",
          "type": "uint32"
        },
        {
          "internalType": "uint256[]",
          "name": "lists",
          "type": "uint256[]"
        }
      ],
      "name": "setRoomLists",
      "outputs": [],
      "stateMutability": "nonpayable",
      "type": "function"
    },
    {
      "inputs": [
        {
          "internalType": "uint32",
          "name": "roomId",
          "type": "uint32"
        },
        {
          "internalType": "uint256",
          "name": "list",
          "type": "uint256"
        }
      ],
      "name": "addListToRoom",
      "outputs": [],
      "stateMutability": "nonpayable",
      "type": "function"
    },
    {
      "inputs": [
        {
          "internalType": "uint32",
          "name": "id",
          "type": "uint32"
        }
      ],
      "name": "getRoom",
      "outputs": [],
      "stateMutability": "nonpayable",
      "type": "function"
    },
    {
      "inputs": [
        {
          "internalType": "uint32",
          "name": "roomId",
          "type": "uint32"
        },
        {
          "internalType": "uint32",
          "name": "voteUid",
          "type": "uint32"
        },
        {
          "internalType": "uint256",
          "name": "list",
          "type": "uint256"
        },
        {
          "internalType": "string",
          "name": "userId",
          "type": "string"
        }
      ],
      "name": "vote",
      "outputs": [],
      "stateMutability": "nonpayable",
      "type": "function"
    },
    {
      "inputs": [
        {
          "internalType": "uint32",
          "name": "roomId",
          "type": "uint32"
        },
        {
          "internalType": "uint32",
          "name": "voteId",
          "type": "uint32"
        }
      ],
      "name": "getVoteById",
      "outputs": [],
      "stateMutability": "nonpayable",
      "type": "function"
    },
    {
      "inputs": [
        {
          "internalType": "uint32",
          "name": "roomId",
          "type": "uint32"
        }
      ],
      "name": "getProposalVotes",
      "outputs": [],
      "stateMutability": "nonpayable",
      "type": "function"
    }
  ],
  "bytecode": "0x608060405234801561001057600080fd5b50336000806101000a81548173ffffffffffffffffffffffffffffffffffffffff021916908373ffffffffffffffffffffffffffffffffffffffff160217905550611885806100606000396000f3fe608060405234801561001057600080fd5b506004361061007d5760003560e01c806386c556ce1161005b57806386c556ce146100d657806387308e10146100f2578063deb61c151461010e578063fa68daad1461012a5761007d565b80632836a3fc146100825780632e8e3e0d1461009e57806338da1762146100ba575b600080fd5b61009c60048036038101906100979190610f21565b610146565b005b6100b860048036038101906100b39190610f4e565b6102b6565b005b6100d460048036038101906100cf9190610ff3565b610420565b005b6100f060048036038101906100eb9190611089565b610587565b005b61010c6004803603810190610107919061111f565b610704565b005b61012860048036038101906101239190610f21565b61094c565b005b610144600480360381019061013f91906111a7565b610a97565b005b80600060149054906101000a900463ffffffff1663ffffffff168163ffffffff16106101a7576040517f08c379a000000000000000000000000000000000000000000000000000000000815260040161019e90611285565b60405180910390fd5b60008054906101000a900473ffffffffffffffffffffffffffffffffffffffff1673ffffffffffffffffffffffffffffffffffffffff163373ffffffffffffffffffffffffffffffffffffffff1614610235576040517f08c379a000000000000000000000000000000000000000000000000000000000815260040161022c90611317565b60405180910390fd5b7f6576392490a410ed91f903f251f31ca0601e583c35dcdc3daedb1b06a23c4b3b600160008463ffffffff1663ffffffff168152602001908152602001600020600001600160008563ffffffff1663ffffffff168152602001908152602001600020600101846040516102aa9392919061143b565b60405180910390a15050565b60008054906101000a900473ffffffffffffffffffffffffffffffffffffffff1673ffffffffffffffffffffffffffffffffffffffff163373ffffffffffffffffffffffffffffffffffffffff1614610344576040517f08c379a000000000000000000000000000000000000000000000000000000000815260040161033b90611317565b60405180910390fd5b81600060149054906101000a900463ffffffff1663ffffffff168163ffffffff16106103a5576040517f08c379a000000000000000000000000000000000000000000000000000000000815260040161039c90611285565b60405180910390fd5b7f549227a0eea8373555aa0c4f0a99a6b31547e17820e317750096d632d3b5d598600160008563ffffffff1663ffffffff16815260200190815260200160002060050160008463ffffffff1663ffffffff16815260200190815260200160002054604051610413919061148f565b60405180910390a1505050565b82600060149054906101000a900463ffffffff1663ffffffff168163ffffffff1610610481576040517f08c379a000000000000000000000000000000000000000000000000000000000815260040161047890611285565b60405180910390fd5b60008054906101000a900473ffffffffffffffffffffffffffffffffffffffff1673ffffffffffffffffffffffffffffffffffffffff163373ffffffffffffffffffffffffffffffffffffffff161461050f576040517f08c379a000000000000000000000000000000000000000000000000000000000815260040161050690611317565b60405180910390fd5b6000600160008663ffffffff1663ffffffff16815260200190815260200160002090508383826003019190610545929190610deb565b507f1a04cb98791a9bdf35eaae72e1b64f08d07d92ba380f5035fcba9bea5ee381528160030160405161057891906115b8565b60405180910390a15050505050565b81600060149054906101000a900463ffffffff1663ffffffff168163ffffffff16106105e8576040517f08c379a00000000000000000000000000000000000000000000000000000000081526004016105df90611285565b60405180910390fd5b60008054906101000a900473ffffffffffffffffffffffffffffffffffffffff1673ffffffffffffffffffffffffffffffffffffffff163373ffffffffffffffffffffffffffffffffffffffff1614610676576040517f08c379a000000000000000000000000000000000000000000000000000000000815260040161066d90611317565b60405180910390fd5b6000600160008563ffffffff1663ffffffff1681526020019081526020016000209050806003018390806001815401808255809150506001900390600052602060002001600090919091909150557f1a04cb98791a9bdf35eaae72e1b64f08d07d92ba380f5035fcba9bea5ee38152816003016040516106f691906115b8565b60405180910390a150505050565b60008054906101000a900473ffffffffffffffffffffffffffffffffffffffff1673ffffffffffffffffffffffffffffffffffffffff163373ffffffffffffffffffffffffffffffffffffffff1614610792576040517f08c379a000000000000000000000000000000000000000000000000000000000815260040161078990611317565b60405180910390fd5b84600060149054906101000a900463ffffffff1663ffffffff168163ffffffff16106107f3576040517f08c379a00000000000000000000000000000000000000000000000000000000081526004016107ea90611285565b60405180910390fd5b85838386610802848484610c12565b15610842576040517f08c379a000000000000000000000000000000000000000000000000000000000815260040161083990611626565b60405180910390fd5b61084c8482610d52565b61088b576040517f08c379a000000000000000000000000000000000000000000000000000000000815260040161088290611692565b60405180910390fd5b6000600160008c63ffffffff1663ffffffff1681526020019081526020016000209050806002018888909180600181540180825580915050600190039060005260206000200160009091929091929091929091925091906108ed929190610e38565b5080600401899080600181540180825580915050600190039060005260206000200160009091909190915055888160050160008c63ffffffff1663ffffffff168152602001908152602001600020819055505050505050505050505050565b60008054906101000a900473ffffffffffffffffffffffffffffffffffffffff1673ffffffffffffffffffffffffffffffffffffffff163373ffffffffffffffffffffffffffffffffffffffff16146109da576040517f08c379a00000000000000000000000000000000000000000000000000000000081526004016109d190611317565b60405180910390fd5b80600060149054906101000a900463ffffffff1663ffffffff168163ffffffff1610610a3b576040517f08c379a0000000000000000000000000000000000000000000000000000000008152600401610a3290611285565b60405180910390fd5b7f5f8d04f0ab384c203afc98fbb64fecd270f4886dc7458d3301cd13e819c4cc65600160008463ffffffff1663ffffffff168152602001908152602001600020600401604051610a8b91906115b8565b60405180910390a15050565b60008054906101000a900473ffffffffffffffffffffffffffffffffffffffff1673ffffffffffffffffffffffffffffffffffffffff163373ffffffffffffffffffffffffffffffffffffffff1614610b25576040517f08c379a0000000000000000000000000000000000000000000000000000000008152600401610b1c90611317565b60405180910390fd5b60006001600080601481819054906101000a900463ffffffff1680929190610b4c906116e1565b91906101000a81548163ffffffff021916908363ffffffff16021790555063ffffffff1663ffffffff16815260200190815260200160002090508484826000019190610b99929190610e38565b508282826001019190610bad929190610e38565b507f6576392490a410ed91f903f251f31ca0601e583c35dcdc3daedb1b06a23c4b3b858585856001600060149054906101000a900463ffffffff16610bf2919061170d565b604051610c0395949392919061178e565b60405180910390a15050505050565b600080600090506000600160008763ffffffff1663ffffffff168152602001908152602001600020905060005b81600201805490508163ffffffff161015610d45576000826002018263ffffffff1681548110610c7257610c716117d7565b5b906000526020600020018054610c8790611366565b80601f0160208091040260200160405190810160405280929190818152602001828054610cb390611366565b8015610d005780601f10610cd557610100808354040283529160200191610d00565b820191906000526020600020905b815481529060010190602001808311610ce357829003601f168201915b505050505090508686604051610d17929190611836565b6040518091039020818051906020012003610d3157600193505b508080610d3d906116e1565b915050610c3f565b5081925050509392505050565b600080600090506000600160008663ffffffff1663ffffffff168152602001908152602001600020905060005b81600301805490508163ffffffff161015610ddf576000826003018263ffffffff1681548110610db257610db16117d7565b5b90600052602060002001549050858103610dcb57600193505b508080610dd7906116e1565b915050610d7f565b50819250505092915050565b828054828255906000526020600020908101928215610e27579160200282015b82811115610e26578235825591602001919060010190610e0b565b5b509050610e349190610ebe565b5090565b828054610e4490611366565b90600052602060002090601f016020900481019282610e665760008555610ead565b82601f10610e7f57803560ff1916838001178555610ead565b82800160010185558215610ead579182015b82811115610eac578235825591602001919060010190610e91565b5b509050610eba9190610ebe565b5090565b5b80821115610ed7576000816000905550600101610ebf565b5090565b600080fd5b600080fd5b600063ffffffff82169050919050565b610efe81610ee5565b8114610f0957600080fd5b50565b600081359050610f1b81610ef5565b92915050565b600060208284031215610f3757610f36610edb565b5b6000610f4584828501610f0c565b91505092915050565b60008060408385031215610f6557610f64610edb565b5b6000610f7385828601610f0c565b9250506020610f8485828601610f0c565b9150509250929050565b600080fd5b600080fd5b600080fd5b60008083601f840112610fb357610fb2610f8e565b5b8235905067ffffffffffffffff811115610fd057610fcf610f93565b5b602083019150836020820283011115610fec57610feb610f98565b5b9250929050565b60008060006040848603121561100c5761100b610edb565b5b600061101a86828701610f0c565b935050602084013567ffffffffffffffff81111561103b5761103a610ee0565b5b61104786828701610f9d565b92509250509250925092565b6000819050919050565b61106681611053565b811461107157600080fd5b50565b6000813590506110838161105d565b92915050565b600080604083850312156110a05761109f610edb565b5b60006110ae85828601610f0c565b92505060206110bf85828601611074565b9150509250929050565b60008083601f8401126110df576110de610f8e565b5b8235905067ffffffffffffffff8111156110fc576110fb610f93565b5b60208301915083600182028301111561111857611117610f98565b5b9250929050565b60008060008060006080868803121561113b5761113a610edb565b5b600061114988828901610f0c565b955050602061115a88828901610f0c565b945050604061116b88828901611074565b935050606086013567ffffffffffffffff81111561118c5761118b610ee0565b5b611198888289016110c9565b92509250509295509295909350565b600080600080604085870312156111c1576111c0610edb565b5b600085013567ffffffffffffffff8111156111df576111de610ee0565b5b6111eb878288016110c9565b9450945050602085013567ffffffffffffffff81111561120e5761120d610ee0565b5b61121a878288016110c9565b925092505092959194509250565b600082825260208201905092915050565b7f52657175657374656420726f6f6d20646f6573206e6f74206578697374000000600082015250565b600061126f601d83611228565b915061127a82611239565b602082019050919050565b6000602082019050818103600083015261129e81611262565b9050919050565b7f46756e6374696f6e206f6e6c792063616c6c61626c6520627920636f6e74726160008201527f6374206f776e6572000000000000000000000000000000000000000000000000602082015250565b6000611301602883611228565b915061130c826112a5565b604082019050919050565b60006020820190508181036000830152611330816112f4565b9050919050565b7f4e487b7100000000000000000000000000000000000000000000000000000000600052602260045260246000fd5b6000600282049050600182168061137e57607f821691505b60208210810361139157611390611337565b5b50919050565b60008190508160005260206000209050919050565b600081546113b981611366565b6113c38186611228565b945060018216600081146113de57600181146113f057611423565b60ff1983168652602086019350611423565b6113f985611397565b60005b8381101561141b578154818901526001820191506020810190506113fc565b808801955050505b50505092915050565b61143581610ee5565b82525050565b6000606082019050818103600083015261145581866113ac565b9050818103602083015261146981856113ac565b9050611478604083018461142c565b949350505050565b61148981611053565b82525050565b60006020820190506114a46000830184611480565b92915050565b600081549050919050565b600082825260208201905092915050565b60008190508160005260206000209050919050565b6114e481611053565b82525050565b60006114f683836114db565b60208301905092915050565b60008160001c9050919050565b6000819050919050565b600061152c61152783611502565b61150f565b9050919050565b600061153f8254611519565b9050919050565b6000600182019050919050565b600061155e826114aa565b61156881856114b5565b9350611573836114c6565b8060005b838110156115ab5761158882611533565b61159288826114ea565b975061159d83611546565b925050600181019050611577565b5085935050505092915050565b600060208201905081810360008301526115d28184611553565b905092915050565b7f5573657220616c726561647920766f7465640000000000000000000000000000600082015250565b6000611610601283611228565b915061161b826115da565b602082019050919050565b6000602082019050818103600083015261163f81611603565b9050919050565b7f4c69737420646f6573206e6f7420657869737400000000000000000000000000600082015250565b600061167c601383611228565b915061168782611646565b602082019050919050565b600060208201905081810360008301526116ab8161166f565b9050919050565b7f4e487b7100000000000000000000000000000000000000000000000000000000600052601160045260246000fd5b60006116ec82610ee5565b915063ffffffff8203611702576117016116b2565b5b600182019050919050565b600061171882610ee5565b915061172383610ee5565b925082821015611736576117356116b2565b5b828203905092915050565b82818337600083830152505050565b6000601f19601f8301169050919050565b600061176d8385611228565b935061177a838584611741565b61178383611750565b840190509392505050565b600060608201905081810360008301526117a9818789611761565b905081810360208301526117be818587611761565b90506117cd604083018461142c565b9695505050505050565b7f4e487b7100000000000000000000000000000000000000000000000000000000600052603260045260246000fd5b600081905092915050565b600061181d8385611806565b935061182a838584611741565b82840190509392505050565b6000611843828486611811565b9150819050939250505056fea2646970667358221220bf98e4662ca1c855a9053db8e0de8efa33416c46eebe134a3ede3c8674bd0ca664736f6c634300080e0033",
  "immutableReferences": {},
  "source": "// SPDX-License-Identifier: UNLICENCED\npragma solidity >= 0.4.22 < 0.9.0;\n\ncontract VotingPlatform {\n\n    struct Room {\n        string title;\n        string description;\n        string[] participants;\n        uint[] lists;\n        uint[] votes;\n        mapping (uint32 => uint) votesById;\n        // TODO - Add date\n    }\n\n    address owner;\n    uint32 roomIndex;\n    mapping (uint32 => Room) rooms;\n\n    // Events\n    event RetrieveRoom(string title, string description, uint32 roomId);\n    event RoomLists(uint[] lists);\n    event RetrieveVote(uint vote);\n    event RetrieveVotes(uint[] votes);\n\n    constructor() {\n        // Set the owner of the contract to the address that deployed it\n        owner = msg.sender;\n    }\n\n    // Function modifiers\n    modifier onlyOwner() {\n        require(msg.sender == owner, \"Function only callable by contract owner\");\n        _;\n    }\n\n    modifier onlyOnExsistantRooms(uint32 id) {\n        require(id < roomIndex, \"Requested room does not exist\");\n        _;\n    }\n\n    modifier voteIsValid(uint32 roomId, string calldata userId, uint list) {\n        require(!didUserAlreadyVote(roomId, userId), \"User already voted\");\n        require(listExistsInRoom(roomId, list), \"List does not exist\");\n        _;\n    }\n\n    function didUserAlreadyVote(uint32 roomId, string calldata userId) private view returns(bool) {\n        bool voted = false;\n        Room storage room = rooms[roomId];\n        for (uint32 i = 0; i < room.participants.length; i++) {\n            string memory currentParticipant = room.participants[i];\n            if (keccak256(bytes(currentParticipant)) == keccak256(bytes(userId))) {\n                voted = true;\n            }\n        }\n\n        return voted;\n    }\n\n    function listExistsInRoom(uint32 roomId, uint list) private view returns(bool) {\n        bool exists = false;\n        Room storage room = rooms[roomId];\n        for (uint32 i = 0; i < room.lists.length; i++) {\n            uint currentList = room.lists[i];\n            if (currentList == list) {\n                exists = true;\n            }\n        }\n\n        return exists;\n    }\n    \n\n    // All functions are only callable by the owner of the contract to prevent outside users interaction\n    function createRoom(string calldata title, string calldata description) public onlyOwner {\n        Room storage newRoom = rooms[roomIndex++];\n        newRoom.title = title;\n        newRoom.description = description;\n        emit RetrieveRoom(title, description, roomIndex - 1);\n    }\n\n    function setRoomLists(uint32 roomId, uint[] calldata lists) public onlyOnExsistantRooms(roomId) onlyOwner {\n        Room storage room = rooms[roomId];\n        room.lists = lists;\n        emit RoomLists(room.lists);\n    }\n\n    function addListToRoom(uint32 roomId, uint list) public onlyOnExsistantRooms(roomId) onlyOwner {\n        Room storage room = rooms[roomId];\n        room.lists.push(list);\n        emit RoomLists(room.lists);\n    }\n\n    // Retrieve proposal by id\n    function getRoom(uint32 id) public onlyOnExsistantRooms(id) onlyOwner {\n        emit RetrieveRoom(rooms[id].title, rooms[id].description, id);\n    }\n\n    // Voting function. TODO - Check for duplicate votes UID? Refactor vote to (Candidate, UID) to avoid mapping?\n    function vote(uint32 roomId, uint32 voteUid, uint list, string calldata userId) public \n        onlyOwner onlyOnExsistantRooms(roomId) voteIsValid(roomId, userId, list)\n    {\n        Room storage room = rooms[roomId];\n        room.participants.push(userId);\n        room.votes.push(list);\n        room.votesById[voteUid] = list;\n    }\n\n    // Retrieve vote by uid\n    function getVoteById(uint32 roomId, uint32 voteId) public onlyOwner onlyOnExsistantRooms(roomId) {\n        emit RetrieveVote(rooms[roomId].votesById[voteId]);\n    }\n\n    // Retrieve proposal votes\n    function getProposalVotes(uint32 roomId) public onlyOwner onlyOnExsistantRooms(roomId) {\n        emit RetrieveVotes(rooms[roomId].votes);\n    }\n}\n",
  "sourcePath": "/Users/franco.cerquetti/Documents/facu/tp-voto-electronico/contracts/src/VotingPlatform.sol",
  "compiler": {
    "name": "solc",
    "version": "0.8.14+commit.80d49f37.Emscripten.clang"
  },
  "schemaVersion": "3.4.7",
  "updatedAt": "2022-09-24T22:56:11.504Z",
  "networkType": "ethereum",
  "devdoc": {
    "kind": "dev",
    "methods": {},
    "version": 1
  },
  "userdoc": {
    "kind": "user",
    "methods": {},
    "version": 1
  }
}